{
  "contractName": "LibraryDemo",
  "abi": [
    {
      "constant": true,
      "inputs": [],
      "name": "owner",
      "outputs": [
        {
          "name": "",
          "type": "address"
        }
      ],
      "payable": false,
      "stateMutability": "view",
      "type": "function"
    },
    {
      "inputs": [],
      "payable": false,
      "stateMutability": "nonpayable",
      "type": "constructor"
    },
    {
      "constant": true,
      "inputs": [
        {
          "name": "_num1",
          "type": "uint256"
        },
        {
          "name": "_num2",
          "type": "uint256"
        }
      ],
      "name": "max",
      "outputs": [
        {
          "name": "",
          "type": "uint256"
        }
      ],
      "payable": false,
      "stateMutability": "pure",
      "type": "function"
    },
    {
      "constant": true,
      "inputs": [
        {
          "name": "_num1",
          "type": "uint256"
        },
        {
          "name": "_num2",
          "type": "uint256"
        }
      ],
      "name": "min",
      "outputs": [
        {
          "name": "",
          "type": "uint256"
        }
      ],
      "payable": false,
      "stateMutability": "pure",
      "type": "function"
    }
  ],
  "bytecode": "0x608060405234801561001057600080fd5b50336000806101000a81548173ffffffffffffffffffffffffffffffffffffffff021916908373ffffffffffffffffffffffffffffffffffffffff1602179055506101f5806100606000396000f300608060405260043610610057576000357c0100000000000000000000000000000000000000000000000000000000900463ffffffff1680636d5433e61461005c5780637ae2b5c7146100a75780638da5cb5b146100f2575b600080fd5b34801561006857600080fd5b506100916004803603810190808035906020019092919080359060200190929190505050610149565b6040518082815260200191505060405180910390f35b3480156100b357600080fd5b506100dc600480360381019080803590602001909291908035906020019092919050505061015d565b6040518082815260200191505060405180910390f35b3480156100fe57600080fd5b50610107610171565b604051808273ffffffffffffffffffffffffffffffffffffffff1673ffffffffffffffffffffffffffffffffffffffff16815260200191505060405180910390f35b60006101558383610196565b905092915050565b600061016983836101b0565b905092915050565b6000809054906101000a900473ffffffffffffffffffffffffffffffffffffffff1681565b6000818310156101a657816101a8565b825b905092915050565b60008183106101bf57816101c1565b825b9050929150505600a165627a7a723058206a35d5052b6658f140ba61a0f896f4a81050b86505ae3d1faeafe9bf6e8560970029",
  "source": "pragma solidity 0.4.24;\n\n// import Open Zeppelin library for simple Math operations\nimport \"../node_modules/openzeppelin-solidity/contracts/math/Math.sol\";\n\n/// @title Library Demo, demonstration of how to use a library\n/// @author Graham Jackson\n//Date: 27 August 2018\n//Version: LibraryDemo v1.0 Local\n/**\n    @dev This contract demonstrates how to use a library within a Solidity\n    contract.\n*/\ncontract LibraryDemo {\n    address public owner; // Address that created/deployed this contract\n\n    constructor() public {\n        owner = msg.sender;\n    }\n\n    /** \n      * @dev Determines which number is larger, provided two numbers are supplied.\n      * @param _num1 The first number to compare.\n      * @param _num2 A second number to compare.\n    */\n    function max(uint256 _num1, uint256 _num2) public pure returns(uint256) {\n        return Math.max256(_num1, _num2);\n    }\n\n    /** \n      * @dev Determines which number is smaller, provided two numbers are supplied.\n      * @param _num1 The first number to compare.\n      * @param _num2 A second number to compare.\n    */\n    function min(uint256 _num1, uint256 _num2) public pure returns(uint256) {\n        return Math.min256(_num1, _num2);\n    }\n}",
  "sourcePath": "/Users/grahamjackson/Projects/media_gallery/contracts/LibraryDemo.sol",
  "compiler": {
    "name": "solc",
    "version": "0.4.24+commit.e67f0147.Emscripten.clang"
  },
  "schemaVersion": "2.0.1",
  "updatedAt": "2018-08-27T04:45:00.734Z"
}