{
  "contractName": "MediaGallery",
  "abi": [
    {
      "constant": true,
      "inputs": [
        {
          "name": "",
          "type": "address"
        },
        {
          "name": "",
          "type": "uint256"
        }
      ],
      "name": "mediaDatabase",
      "outputs": [
        {
          "name": "id",
          "type": "uint256"
        },
        {
          "name": "name",
          "type": "string"
        },
        {
          "name": "description",
          "type": "string"
        },
        {
          "name": "author",
          "type": "address"
        },
        {
          "name": "createDate",
          "type": "uint256"
        },
        {
          "name": "tags",
          "type": "string"
        },
        {
          "name": "mediaHash",
          "type": "string"
        },
        {
          "name": "mediaType",
          "type": "string"
        },
        {
          "name": "extension",
          "type": "string"
        }
      ],
      "payable": false,
      "stateMutability": "view",
      "type": "function"
    },
    {
      "constant": true,
      "inputs": [],
      "name": "mediaCounter",
      "outputs": [
        {
          "name": "",
          "type": "uint256"
        }
      ],
      "payable": false,
      "stateMutability": "view",
      "type": "function"
    },
    {
      "constant": true,
      "inputs": [],
      "name": "isStopped",
      "outputs": [
        {
          "name": "",
          "type": "bool"
        }
      ],
      "payable": false,
      "stateMutability": "view",
      "type": "function"
    },
    {
      "inputs": [],
      "payable": false,
      "stateMutability": "nonpayable",
      "type": "constructor"
    },
    {
      "anonymous": false,
      "inputs": [
        {
          "indexed": true,
          "name": "_id",
          "type": "uint256"
        },
        {
          "indexed": false,
          "name": "_name",
          "type": "string"
        },
        {
          "indexed": false,
          "name": "_author",
          "type": "address"
        },
        {
          "indexed": false,
          "name": "_createDate",
          "type": "uint256"
        },
        {
          "indexed": false,
          "name": "_mediaHash",
          "type": "string"
        },
        {
          "indexed": false,
          "name": "_mediaType",
          "type": "string"
        }
      ],
      "name": "LogNewMediaAsset",
      "type": "event"
    },
    {
      "constant": false,
      "inputs": [],
      "name": "stopContract",
      "outputs": [],
      "payable": false,
      "stateMutability": "nonpayable",
      "type": "function"
    },
    {
      "constant": false,
      "inputs": [],
      "name": "resumeContract",
      "outputs": [],
      "payable": false,
      "stateMutability": "nonpayable",
      "type": "function"
    },
    {
      "constant": false,
      "inputs": [
        {
          "name": "_name",
          "type": "string"
        },
        {
          "name": "_description",
          "type": "string"
        },
        {
          "name": "_mediaHash",
          "type": "string"
        },
        {
          "name": "_tags",
          "type": "string"
        },
        {
          "name": "_mediaType",
          "type": "string"
        },
        {
          "name": "_extension",
          "type": "string"
        }
      ],
      "name": "addMedia",
      "outputs": [],
      "payable": false,
      "stateMutability": "nonpayable",
      "type": "function"
    },
    {
      "constant": true,
      "inputs": [
        {
          "name": "_user",
          "type": "address"
        }
      ],
      "name": "getMediaByAddress",
      "outputs": [
        {
          "name": "",
          "type": "uint256[]"
        }
      ],
      "payable": false,
      "stateMutability": "view",
      "type": "function"
    }
  ],
  "bytecode": "0x608060405234801561001057600080fd5b5033600060016101000a81548173ffffffffffffffffffffffffffffffffffffffff021916908373ffffffffffffffffffffffffffffffffffffffff16021790555061143a806100616000396000f300608060405260043610610083576000357c0100000000000000000000000000000000000000000000000000000000900463ffffffff168063027935d4146100885780630c09a681146103ab57806312253a6c1461044357806329976be81461045a5780633f683b6a146104855780634ac8874d146104b4578063c4bc5da51461067b575b600080fd5b34801561009457600080fd5b506100d3600480360381019080803573ffffffffffffffffffffffffffffffffffffffff16906020019092919080359060200190929190505050610692565b604051808a815260200180602001806020018973ffffffffffffffffffffffffffffffffffffffff1673ffffffffffffffffffffffffffffffffffffffff1681526020018881526020018060200180602001806020018060200187810387528f818151815260200191508051906020019080838360005b8381101561016557808201518184015260208101905061014a565b50505050905090810190601f1680156101925780820380516001836020036101000a031916815260200191505b5087810386528e818151815260200191508051906020019080838360005b838110156101cb5780820151818401526020810190506101b0565b50505050905090810190601f1680156101f85780820380516001836020036101000a031916815260200191505b5087810385528b818151815260200191508051906020019080838360005b83811015610231578082015181840152602081019050610216565b50505050905090810190601f16801561025e5780820380516001836020036101000a031916815260200191505b5087810384528a818151815260200191508051906020019080838360005b8381101561029757808201518184015260208101905061027c565b50505050905090810190601f1680156102c45780820380516001836020036101000a031916815260200191505b50878103835289818151815260200191508051906020019080838360005b838110156102fd5780820151818401526020810190506102e2565b50505050905090810190601f16801561032a5780820380516001836020036101000a031916815260200191505b50878103825288818151815260200191508051906020019080838360005b83811015610363578082015181840152602081019050610348565b50505050905090810190601f1680156103905780820380516001836020036101000a031916815260200191505b509f5050505050505050505050505050505060405180910390f35b3480156103b757600080fd5b506103ec600480360381019080803573ffffffffffffffffffffffffffffffffffffffff169060200190929190505050610aac565b6040518080602001828103825283818151815260200191508051906020019060200280838360005b8381101561042f578082015181840152602081019050610414565b505050509050019250505060405180910390f35b34801561044f57600080fd5b50610458610ccd565b005b34801561046657600080fd5b5061046f610dae565b6040518082815260200191505060405180910390f35b34801561049157600080fd5b5061049a610db4565b604051808215151515815260200191505060405180910390f35b3480156104c057600080fd5b50610679600480360381019080803590602001908201803590602001908080601f0160208091040260200160405190810160405280939291908181526020018383808284378201915050505050509192919290803590602001908201803590602001908080601f0160208091040260200160405190810160405280939291908181526020018383808284378201915050505050509192919290803590602001908201803590602001908080601f0160208091040260200160405190810160405280939291908181526020018383808284378201915050505050509192919290803590602001908201803590602001908080601f0160208091040260200160405190810160405280939291908181526020018383808284378201915050505050509192919290803590602001908201803590602001908080601f0160208091040260200160405190810160405280939291908181526020018383808284378201915050505050509192919290803590602001908201803590602001908080601f0160208091040260200160405190810160405280939291908181526020018383808284378201915050505050509192919290505050610dc6565b005b34801561068757600080fd5b50610690611225565b005b6002602052816000526040600020818154811015156106ad57fe5b906000526020600020906009020160009150915050806000015490806001018054600181600116156101000203166002900480601f0160208091040260200160405190810160405280929190818152602001828054600181600116156101000203166002900480156107605780601f1061073557610100808354040283529160200191610760565b820191906000526020600020905b81548152906001019060200180831161074357829003601f168201915b505050505090806002018054600181600116156101000203166002900480601f0160208091040260200160405190810160405280929190818152602001828054600181600116156101000203166002900480156107fe5780601f106107d3576101008083540402835291602001916107fe565b820191906000526020600020905b8154815290600101906020018083116107e157829003601f168201915b5050505050908060030160009054906101000a900473ffffffffffffffffffffffffffffffffffffffff1690806004015490806005018054600181600116156101000203166002900480601f0160208091040260200160405190810160405280929190818152602001828054600181600116156101000203166002900480156108c85780601f1061089d576101008083540402835291602001916108c8565b820191906000526020600020905b8154815290600101906020018083116108ab57829003601f168201915b505050505090806006018054600181600116156101000203166002900480601f0160208091040260200160405190810160405280929190818152602001828054600181600116156101000203166002900480156109665780601f1061093b57610100808354040283529160200191610966565b820191906000526020600020905b81548152906001019060200180831161094957829003601f168201915b505050505090806007018054600181600116156101000203166002900480601f016020809104026020016040519081016040528092919081815260200182805460018160011615610100020316600290048015610a045780601f106109d957610100808354040283529160200191610a04565b820191906000526020600020905b8154815290600101906020018083116109e757829003601f168201915b505050505090806008018054600181600116156101000203166002900480601f016020809104026020016040519081016040528092919081815260200182805460018160011615610100020316600290048015610aa25780601f10610a7757610100808354040283529160200191610aa2565b820191906000526020600020905b815481529060010190602001808311610a8557829003601f168201915b5050505050905089565b6060806000806000600260008773ffffffffffffffffffffffffffffffffffffffff1673ffffffffffffffffffffffffffffffffffffffff16815260200190815260200160002080549050111515610b6c576040517f08c379a000000000000000000000000000000000000000000000000000000000815260040180806020018281038252601c8152602001807f4e6f206d6564696120666f756e6420666f72207468697320757365720000000081525060200191505060405180910390fd5b600260008673ffffffffffffffffffffffffffffffffffffffff1673ffffffffffffffffffffffffffffffffffffffff16815260200190815260200160002080549050604051908082528060200260200182016040528015610bdd5781602001602082028038833980820191505090505b50925060009150600090505b600260008673ffffffffffffffffffffffffffffffffffffffff1673ffffffffffffffffffffffffffffffffffffffff16815260200190815260200160002080549050811015610cc257600260008673ffffffffffffffffffffffffffffffffffffffff1673ffffffffffffffffffffffffffffffffffffffff16815260200190815260200160002081815481101515610c7f57fe5b9060005260206000209060090201600001548383815181101515610c9f57fe5b906020019060200201818152505081806001019250508080600101915050610be9565b829350505050919050565b600060019054906101000a900473ffffffffffffffffffffffffffffffffffffffff1673ffffffffffffffffffffffffffffffffffffffff163373ffffffffffffffffffffffffffffffffffffffff16141515610d92576040517f08c379a00000000000000000000000000000000000000000000000000000000081526004018080602001828103825260168152602001807f53656e646572206e6f7420617574686f72697a65642e0000000000000000000081525060200191505060405180910390fd5b60016000806101000a81548160ff021916908315150217905550565b60015481565b6000809054906101000a900460ff1681565b610dce611306565b60008060009054906101000a900460ff16151515610e54576040517f08c379a000000000000000000000000000000000000000000000000000000000815260040180806020018281038252601d8152602001807f54686520636f6e747261637420686173206265656e2073746f7070656400000081525060200191505060405180910390fd5b42905060015482600001818152505087826020018190525086826040018190525033826060019073ffffffffffffffffffffffffffffffffffffffff16908173ffffffffffffffffffffffffffffffffffffffff168152505080826080018181525050858260c00181905250848260a00181905250838260e0018190525082826101000181905250600260003373ffffffffffffffffffffffffffffffffffffffff1673ffffffffffffffffffffffffffffffffffffffff1681526020019081526020016000208290806001815401808255809150509060018203906000526020600020906009020160009091929091909150600082015181600001556020820151816001019080519060200190610f6d929190611369565b506040820151816002019080519060200190610f8a929190611369565b5060608201518160030160006101000a81548173ffffffffffffffffffffffffffffffffffffffff021916908373ffffffffffffffffffffffffffffffffffffffff1602179055506080820151816004015560a0820151816005019080519060200190610ff8929190611369565b5060c0820151816006019080519060200190611015929190611369565b5060e0820151816007019080519060200190611032929190611369565b50610100820151816008019080519060200190611050929190611369565b505050506001547f2dbfa5dcbfa0948f9d568b233f27e73a63a2ccdef907b08ef3669239c9d63d798933848a8960405180806020018673ffffffffffffffffffffffffffffffffffffffff1673ffffffffffffffffffffffffffffffffffffffff1681526020018581526020018060200180602001848103845289818151815260200191508051906020019080838360005b838110156110fd5780820151818401526020810190506110e2565b50505050905090810190601f16801561112a5780820380516001836020036101000a031916815260200191505b50848103835286818151815260200191508051906020019080838360005b83811015611163578082015181840152602081019050611148565b50505050905090810190601f1680156111905780820380516001836020036101000a031916815260200191505b50848103825285818151815260200191508051906020019080838360005b838110156111c95780820151818401526020810190506111ae565b50505050905090810190601f1680156111f65780820380516001836020036101000a031916815260200191505b509850505050505050505060405180910390a26001600081548092919060010191905055505050505050505050565b600060019054906101000a900473ffffffffffffffffffffffffffffffffffffffff1673ffffffffffffffffffffffffffffffffffffffff163373ffffffffffffffffffffffffffffffffffffffff161415156112ea576040517f08c379a00000000000000000000000000000000000000000000000000000000081526004018080602001828103825260168152602001807f53656e646572206e6f7420617574686f72697a65642e0000000000000000000081525060200191505060405180910390fd5b60008060006101000a81548160ff021916908315150217905550565b61012060405190810160405280600081526020016060815260200160608152602001600073ffffffffffffffffffffffffffffffffffffffff16815260200160008152602001606081526020016060815260200160608152602001606081525090565b828054600181600116156101000203166002900490600052602060002090601f016020900481019282601f106113aa57805160ff19168380011785556113d8565b828001600101855582156113d8579182015b828111156113d75782518255916020019190600101906113bc565b5b5090506113e591906113e9565b5090565b61140b91905b808211156114075760008160009055506001016113ef565b5090565b905600a165627a7a72305820a1bd5290ec98a0d510faf3e2545737fe011bfc20b154535049990c4d1bac8d840029",
  "source": "pragma solidity ^0.4.24;\n\ncontract MediaGallery {\n    bool public isStopped;\n    address owner;\n    uint public mediaCounter;\n\n    struct MediaAsset {\n        uint id;\n        string name;\n        string description;\n        address author;\n        uint createDate;\n        string tags;\n        string mediaHash;\n        string mediaType;\n        string extension;\n    }\n\n    mapping(address => MediaAsset[]) public mediaDatabase;\n\n    event LogNewMediaAsset(\n        uint indexed _id,\n        string _name,\n        address _author,\n        uint _createDate,\n        string _mediaHash,\n        string _mediaType\n    );\n\n\n    modifier stoppedInEmergency {\n        require(\n            !isStopped,\n            \"The contract has been stopped\"\n        );\n        _;\n    }\n\n    modifier onlyAuthorized {\n        require(\n            msg.sender == owner,\n            \"Sender not authorized.\"\n        );\n        _;\n    }\n\n    constructor() public {\n        owner = msg.sender;\n    }\n\n    function stopContract() public onlyAuthorized {\n        isStopped = true;\n    }\n\n    function resumeContract() public onlyAuthorized {\n        isStopped = false;\n    }\n\n    function addMedia(\n        string _name,\n        string _description,\n        string _mediaHash,\n        string _tags,\n        string _mediaType,\n        string _extension\n        ) public  stoppedInEmergency {\n        MediaAsset memory currentMedia;\n        uint date = block.timestamp;\n\n        currentMedia.id = mediaCounter;\n        currentMedia.name = _name;\n        currentMedia.description = _description;\n        currentMedia.author = msg.sender;\n        currentMedia.createDate = date;\n        currentMedia.mediaHash = _mediaHash;\n        currentMedia.tags = _tags;\n        currentMedia.mediaType = _mediaType;\n        currentMedia.extension = _extension;\n\n        mediaDatabase[msg.sender].push(currentMedia);\n\n        emit LogNewMediaAsset(\n            mediaCounter,\n            _name,\n            msg.sender,\n            date,\n            _mediaHash,\n            _mediaType\n        );\n\n        mediaCounter++;\n    }\n\n    function getMediaByAddress(address _user) public view returns (uint[]) {\n        require(mediaDatabase[_user].length > 0, \"No media found for this user\");\n\n        uint[] memory mediaAssetIds = new uint[](mediaDatabase[_user].length);\n\n        uint numberOfMediaAssets = 0;\n\n        for(uint i = 0; i < mediaDatabase[_user].length;  i++) {\n            mediaAssetIds[numberOfMediaAssets] = mediaDatabase[_user][i].id;\n            numberOfMediaAssets++;\n        }\n        return mediaAssetIds;\n    }\n}",
  "sourcePath": "/Users/grahamjackson/Projects/media_gallery/contracts/MediaGallery.sol",
  "compiler": {
    "name": "solc",
    "version": "0.4.24+commit.e67f0147.Emscripten.clang"
  },
  "schemaVersion": "2.0.1",
  "updatedAt": "2018-08-18T00:50:56.657Z"
}