{
  "contractName": "MediaGallery",
  "abi": [
    {
      "constant": true,
      "inputs": [
        {
          "name": "",
          "type": "address"
        },
        {
          "name": "",
          "type": "uint256"
        }
      ],
      "name": "mediaDatabase",
      "outputs": [
        {
          "name": "id",
          "type": "uint256"
        },
        {
          "name": "name",
          "type": "string"
        },
        {
          "name": "description",
          "type": "string"
        },
        {
          "name": "author",
          "type": "address"
        },
        {
          "name": "createDate",
          "type": "uint256"
        },
        {
          "name": "tags",
          "type": "string"
        },
        {
          "name": "mediaHash",
          "type": "string"
        }
      ],
      "payable": false,
      "stateMutability": "view",
      "type": "function"
    },
    {
      "constant": true,
      "inputs": [
        {
          "name": "",
          "type": "uint256"
        }
      ],
      "name": "contributors",
      "outputs": [
        {
          "name": "",
          "type": "address"
        }
      ],
      "payable": false,
      "stateMutability": "view",
      "type": "function"
    },
    {
      "inputs": [],
      "payable": false,
      "stateMutability": "nonpayable",
      "type": "constructor"
    },
    {
      "anonymous": false,
      "inputs": [
        {
          "indexed": true,
          "name": "_id",
          "type": "uint256"
        },
        {
          "indexed": false,
          "name": "_name",
          "type": "string"
        },
        {
          "indexed": false,
          "name": "_author",
          "type": "address"
        },
        {
          "indexed": false,
          "name": "_createDate",
          "type": "uint256"
        },
        {
          "indexed": false,
          "name": "_mediaHash",
          "type": "string"
        }
      ],
      "name": "LogNewMediaAsset",
      "type": "event"
    },
    {
      "constant": false,
      "inputs": [
        {
          "name": "_name",
          "type": "string"
        },
        {
          "name": "_description",
          "type": "string"
        },
        {
          "name": "_mediaHash",
          "type": "string"
        },
        {
          "name": "_tags",
          "type": "string"
        }
      ],
      "name": "addMedia",
      "outputs": [
        {
          "name": "success",
          "type": "bool"
        }
      ],
      "payable": false,
      "stateMutability": "nonpayable",
      "type": "function"
    },
    {
      "constant": true,
      "inputs": [
        {
          "name": "_user",
          "type": "address"
        }
      ],
      "name": "getMediaByAddress",
      "outputs": [
        {
          "name": "",
          "type": "uint256[]"
        }
      ],
      "payable": false,
      "stateMutability": "view",
      "type": "function"
    },
    {
      "constant": true,
      "inputs": [
        {
          "name": "_author",
          "type": "address"
        }
      ],
      "name": "getNumberOfMediaForContributor",
      "outputs": [
        {
          "name": "",
          "type": "uint256"
        }
      ],
      "payable": false,
      "stateMutability": "view",
      "type": "function"
    },
    {
      "constant": true,
      "inputs": [],
      "name": "getContributors",
      "outputs": [
        {
          "name": "",
          "type": "address[]"
        }
      ],
      "payable": false,
      "stateMutability": "view",
      "type": "function"
    }
  ],
  "bytecode": "0x608060405234801561001057600080fd5b50336000806101000a81548173ffffffffffffffffffffffffffffffffffffffff021916908373ffffffffffffffffffffffffffffffffffffffff16021790555061104a806100606000396000f300608060405260043610610078576000357c0100000000000000000000000000000000000000000000000000000000900463ffffffff168063027935d41461007d5780630c09a681146102c85780633cb5d1001461036057806374da6971146103cd5780638f56cdd414610520578063af157c1914610577575b600080fd5b34801561008957600080fd5b506100c8600480360381019080803573ffffffffffffffffffffffffffffffffffffffff169060200190929190803590602001909291905050506105e3565b6040518088815260200180602001806020018773ffffffffffffffffffffffffffffffffffffffff1673ffffffffffffffffffffffffffffffffffffffff168152602001868152602001806020018060200185810385528b818151815260200191508051906020019080838360005b83811015610152578082015181840152602081019050610137565b50505050905090810190601f16801561017f5780820380516001836020036101000a031916815260200191505b5085810384528a818151815260200191508051906020019080838360005b838110156101b857808201518184015260208101905061019d565b50505050905090810190601f1680156101e55780820380516001836020036101000a031916815260200191505b50858103835287818151815260200191508051906020019080838360005b8381101561021e578082015181840152602081019050610203565b50505050905090810190601f16801561024b5780820380516001836020036101000a031916815260200191505b50858103825286818151815260200191508051906020019080838360005b83811015610284578082015181840152602081019050610269565b50505050905090810190601f1680156102b15780820380516001836020036101000a031916815260200191505b509b50505050505050505050505060405180910390f35b3480156102d457600080fd5b50610309600480360381019080803573ffffffffffffffffffffffffffffffffffffffff1690602001909291905050506108c1565b6040518080602001828103825283818151815260200191508051906020019060200280838360005b8381101561034c578082015181840152602081019050610331565b505050509050019250505060405180910390f35b34801561036c57600080fd5b5061038b60048036038101908080359060200190929190505050610a28565b604051808273ffffffffffffffffffffffffffffffffffffffff1673ffffffffffffffffffffffffffffffffffffffff16815260200191505060405180910390f35b3480156103d957600080fd5b50610506600480360381019080803590602001908201803590602001908080601f0160208091040260200160405190810160405280939291908181526020018383808284378201915050505050509192919290803590602001908201803590602001908080601f0160208091040260200160405190810160405280939291908181526020018383808284378201915050505050509192919290803590602001908201803590602001908080601f0160208091040260200160405190810160405280939291908181526020018383808284378201915050505050509192919290803590602001908201803590602001908080601f0160208091040260200160405190810160405280939291908181526020018383808284378201915050505050509192919290505050610a66565b604051808215151515815260200191505060405180910390f35b34801561052c57600080fd5b50610561600480360381019080803573ffffffffffffffffffffffffffffffffffffffff169060200190929190505050610df2565b6040518082815260200191505060405180910390f35b34801561058357600080fd5b5061058c610e3e565b6040518080602001828103825283818151815260200191508051906020019060200280838360005b838110156105cf5780820151818401526020810190506105b4565b505050509050019250505060405180910390f35b6004602052816000526040600020818154811015156105fe57fe5b906000526020600020906007020160009150915050806000015490806001018054600181600116156101000203166002900480601f0160208091040260200160405190810160405280929190818152602001828054600181600116156101000203166002900480156106b15780601f10610686576101008083540402835291602001916106b1565b820191906000526020600020905b81548152906001019060200180831161069457829003601f168201915b505050505090806002018054600181600116156101000203166002900480601f01602080910402602001604051908101604052809291908181526020018280546001816001161561010002031660029004801561074f5780601f106107245761010080835404028352916020019161074f565b820191906000526020600020905b81548152906001019060200180831161073257829003601f168201915b5050505050908060030160009054906101000a900473ffffffffffffffffffffffffffffffffffffffff1690806004015490806005018054600181600116156101000203166002900480601f0160208091040260200160405190810160405280929190818152602001828054600181600116156101000203166002900480156108195780601f106107ee57610100808354040283529160200191610819565b820191906000526020600020905b8154815290600101906020018083116107fc57829003601f168201915b505050505090806006018054600181600116156101000203166002900480601f0160208091040260200160405190810160405280929190818152602001828054600181600116156101000203166002900480156108b75780601f1061088c576101008083540402835291602001916108b7565b820191906000526020600020905b81548152906001019060200180831161089a57829003601f168201915b5050505050905087565b606080600080600460008673ffffffffffffffffffffffffffffffffffffffff1673ffffffffffffffffffffffffffffffffffffffff168152602001908152602001600020805490506040519080825280602002602001820160405280156109385781602001602082028038833980820191505090505b50925060009150600090505b600460008673ffffffffffffffffffffffffffffffffffffffff1673ffffffffffffffffffffffffffffffffffffffff16815260200190815260200160002080549050811015610a1d57600460008673ffffffffffffffffffffffffffffffffffffffff1673ffffffffffffffffffffffffffffffffffffffff168152602001908152602001600020818154811015156109da57fe5b90600052602060002090600702016000015483838151811015156109fa57fe5b906020019060200201818152505081806001019250508080600101915050610944565b829350505050919050565b600381815481101515610a3757fe5b906000526020600020016000915054906101000a900473ffffffffffffffffffffffffffffffffffffffff1681565b6000610a70610f25565b600042905060015482600001818152505086826020018190525085826040018190525033826060019073ffffffffffffffffffffffffffffffffffffffff16908173ffffffffffffffffffffffffffffffffffffffff168152505080826080018181525050848260c00181905250838260a00181905250600460003373ffffffffffffffffffffffffffffffffffffffff1673ffffffffffffffffffffffffffffffffffffffff1681526020019081526020016000208290806001815401808255809150509060018203906000526020600020906007020160009091929091909150600082015181600001556020820151816001019080519060200190610b78929190610f79565b506040820151816002019080519060200190610b95929190610f79565b5060608201518160030160006101000a81548173ffffffffffffffffffffffffffffffffffffffff021916908373ffffffffffffffffffffffffffffffffffffffff1602179055506080820151816004015560a0820151816005019080519060200190610c03929190610f79565b5060c0820151816006019080519060200190610c20929190610f79565b505050506001547f8c175b1b05f6a2bee2adc4729be56a51866718bf6b823199d15bd27c2ee3128e8833848960405180806020018573ffffffffffffffffffffffffffffffffffffffff1673ffffffffffffffffffffffffffffffffffffffff16815260200184815260200180602001838103835287818151815260200191508051906020019080838360005b83811015610cc8578082015181840152602081019050610cad565b50505050905090810190601f168015610cf55780820380516001836020036101000a031916815260200191505b50838103825284818151815260200191508051906020019080838360005b83811015610d2e578082015181840152602081019050610d13565b50505050905090810190601f168015610d5b5780820380516001836020036101000a031916815260200191505b50965050505050505060405180910390a260033390806001815401808255809150509060018203906000526020600020016000909192909190916101000a81548173ffffffffffffffffffffffffffffffffffffffff021916908373ffffffffffffffffffffffffffffffffffffffff16021790555050600160008154809291906001019190505550600192505050949350505050565b6000600460008373ffffffffffffffffffffffffffffffffffffffff1673ffffffffffffffffffffffffffffffffffffffff168152602001908152602001600020805490509050919050565b6060806000600380549050604051908082528060200260200182016040528015610e775781602001602082028038833980820191505090505b509150600090505b600380549050811015610f1d57600381815481101515610e9b57fe5b9060005260206000200160009054906101000a900473ffffffffffffffffffffffffffffffffffffffff168282815181101515610ed457fe5b9060200190602002019073ffffffffffffffffffffffffffffffffffffffff16908173ffffffffffffffffffffffffffffffffffffffff16815250508080600101915050610e7f565b819250505090565b60e060405190810160405280600081526020016060815260200160608152602001600073ffffffffffffffffffffffffffffffffffffffff1681526020016000815260200160608152602001606081525090565b828054600181600116156101000203166002900490600052602060002090601f016020900481019282601f10610fba57805160ff1916838001178555610fe8565b82800160010185558215610fe8579182015b82811115610fe7578251825591602001919060010190610fcc565b5b509050610ff59190610ff9565b5090565b61101b91905b80821115611017576000816000905550600101610fff565b5090565b905600a165627a7a723058206cef13ffb20cb44b1dfc1a317b3975f212fe84a0df51357a5178557c04df11270029",
  "source": "pragma solidity ^0.4.24;\n\ncontract MediaGallery {\n    address owner;\n    uint counter;\n    bool stop;\n    address[] public contributors; \n\n    struct MediaAsset {\n        uint id;\n        string name;\n        string description;\n        address author;\n        uint createDate;\n        string tags;\n        string mediaHash;\n    }\n\n    mapping(address => MediaAsset[]) public mediaDatabase;\n\n    event LogNewMediaAsset(\n        uint indexed _id,\n        string _name,\n        address _author,\n        uint _createDate,\n        string _mediaHash\n    );\n\n    constructor () {\n        owner = msg.sender;\n    }\n\n    function addMedia(\n        string _name,\n        string _description,\n        string _mediaHash,\n        string _tags\n        ) public returns (bool success) {\n        MediaAsset memory currentMedia;\n        uint date = block.timestamp;\n\n        currentMedia.id = counter;\n        currentMedia.name = _name;\n        currentMedia.description = _description;\n        currentMedia.author = msg.sender;\n        currentMedia.createDate = date;\n        currentMedia.mediaHash = _mediaHash;\n        currentMedia.tags = _tags;\n\n        mediaDatabase[msg.sender].push(currentMedia);\n\n        emit LogNewMediaAsset(\n            counter,\n            _name,\n            msg.sender,\n            date,\n            _mediaHash\n        );\n\n        contributors.push(msg.sender);\n\n        counter++;\n\n        return true;\n    }\n\n    function getMediaByAddress(address _user) public view returns (uint[]) {\n        uint[] memory mediaAssetIds = new uint[](mediaDatabase[_user].length);\n\n        uint numberOfMediaAssets = 0;\n\n        for(uint i = 0; i < mediaDatabase[_user].length;  i++) {\n            mediaAssetIds[numberOfMediaAssets] = mediaDatabase[_user][i].id;\n            numberOfMediaAssets++;\n        }\n        return mediaAssetIds;\n    }\n\n    function getNumberOfMediaForContributor(address _author) public view returns (uint) {\n        return mediaDatabase[_author].length;\n    }\n\n    function getContributors() public view returns (address[]) {\n        address[] memory mediaContributors = new address[](contributors.length);\n\n        for(uint i = 0; i < contributors.length; i++) {\n            mediaContributors[i] = contributors[i];\n        }\n\n        return mediaContributors;\n    }\n}",
  "sourcePath": "/Users/grahamjackson/Projects/photo_gallery/contracts/MediaGallery.sol",
  "compiler": {
    "name": "solc",
    "version": "0.4.24+commit.e67f0147.Emscripten.clang"
  },
  "schemaVersion": "2.0.1",
  "updatedAt": "2018-08-14T16:17:07.808Z"
}