{
  "contractName": "MediaGallery",
  "abi": [
    {
      "constant": true,
      "inputs": [
        {
          "name": "",
          "type": "address"
        },
        {
          "name": "",
          "type": "uint256"
        }
      ],
      "name": "mediaDatabase",
      "outputs": [
        {
          "name": "id",
          "type": "uint256"
        },
        {
          "name": "name",
          "type": "string"
        },
        {
          "name": "description",
          "type": "string"
        },
        {
          "name": "author",
          "type": "address"
        },
        {
          "name": "createDate",
          "type": "uint256"
        },
        {
          "name": "tags",
          "type": "string"
        },
        {
          "name": "mediaHash",
          "type": "string"
        },
        {
          "name": "mediaType",
          "type": "string"
        },
        {
          "name": "extension",
          "type": "string"
        }
      ],
      "payable": false,
      "stateMutability": "view",
      "type": "function"
    },
    {
      "constant": true,
      "inputs": [],
      "name": "maximumNameLength",
      "outputs": [
        {
          "name": "",
          "type": "uint256"
        }
      ],
      "payable": false,
      "stateMutability": "view",
      "type": "function"
    },
    {
      "constant": true,
      "inputs": [],
      "name": "mediaCounter",
      "outputs": [
        {
          "name": "",
          "type": "uint256"
        }
      ],
      "payable": false,
      "stateMutability": "view",
      "type": "function"
    },
    {
      "constant": true,
      "inputs": [],
      "name": "isStopped",
      "outputs": [
        {
          "name": "",
          "type": "bool"
        }
      ],
      "payable": false,
      "stateMutability": "view",
      "type": "function"
    },
    {
      "constant": true,
      "inputs": [],
      "name": "maximumTagsLength",
      "outputs": [
        {
          "name": "",
          "type": "uint256"
        }
      ],
      "payable": false,
      "stateMutability": "view",
      "type": "function"
    },
    {
      "constant": false,
      "inputs": [],
      "name": "renounceOwnership",
      "outputs": [],
      "payable": false,
      "stateMutability": "nonpayable",
      "type": "function"
    },
    {
      "constant": false,
      "inputs": [],
      "name": "destroy",
      "outputs": [],
      "payable": false,
      "stateMutability": "nonpayable",
      "type": "function"
    },
    {
      "constant": true,
      "inputs": [],
      "name": "hashLength",
      "outputs": [
        {
          "name": "",
          "type": "uint256"
        }
      ],
      "payable": false,
      "stateMutability": "view",
      "type": "function"
    },
    {
      "constant": true,
      "inputs": [],
      "name": "owner",
      "outputs": [
        {
          "name": "",
          "type": "address"
        }
      ],
      "payable": false,
      "stateMutability": "view",
      "type": "function"
    },
    {
      "constant": true,
      "inputs": [],
      "name": "maximumDescLength",
      "outputs": [
        {
          "name": "",
          "type": "uint256"
        }
      ],
      "payable": false,
      "stateMutability": "view",
      "type": "function"
    },
    {
      "constant": false,
      "inputs": [
        {
          "name": "_newOwner",
          "type": "address"
        }
      ],
      "name": "transferOwnership",
      "outputs": [],
      "payable": false,
      "stateMutability": "nonpayable",
      "type": "function"
    },
    {
      "constant": false,
      "inputs": [
        {
          "name": "_recipient",
          "type": "address"
        }
      ],
      "name": "destroyAndSend",
      "outputs": [],
      "payable": false,
      "stateMutability": "nonpayable",
      "type": "function"
    },
    {
      "anonymous": false,
      "inputs": [
        {
          "indexed": true,
          "name": "_id",
          "type": "uint256"
        },
        {
          "indexed": false,
          "name": "_name",
          "type": "string"
        },
        {
          "indexed": false,
          "name": "_author",
          "type": "address"
        },
        {
          "indexed": false,
          "name": "_createDate",
          "type": "uint256"
        },
        {
          "indexed": false,
          "name": "_mediaHash",
          "type": "string"
        },
        {
          "indexed": false,
          "name": "_mediaType",
          "type": "string"
        }
      ],
      "name": "LogNewMediaAsset",
      "type": "event"
    },
    {
      "anonymous": false,
      "inputs": [
        {
          "indexed": true,
          "name": "previousOwner",
          "type": "address"
        }
      ],
      "name": "OwnershipRenounced",
      "type": "event"
    },
    {
      "anonymous": false,
      "inputs": [
        {
          "indexed": true,
          "name": "previousOwner",
          "type": "address"
        },
        {
          "indexed": true,
          "name": "newOwner",
          "type": "address"
        }
      ],
      "name": "OwnershipTransferred",
      "type": "event"
    },
    {
      "constant": false,
      "inputs": [],
      "name": "stopContract",
      "outputs": [],
      "payable": false,
      "stateMutability": "nonpayable",
      "type": "function"
    },
    {
      "constant": false,
      "inputs": [],
      "name": "resumeContract",
      "outputs": [],
      "payable": false,
      "stateMutability": "nonpayable",
      "type": "function"
    },
    {
      "constant": false,
      "inputs": [
        {
          "name": "_name",
          "type": "string"
        },
        {
          "name": "_description",
          "type": "string"
        },
        {
          "name": "_mediaHash",
          "type": "string"
        },
        {
          "name": "_tags",
          "type": "string"
        },
        {
          "name": "_mediaType",
          "type": "string"
        },
        {
          "name": "_extension",
          "type": "string"
        }
      ],
      "name": "addMedia",
      "outputs": [],
      "payable": false,
      "stateMutability": "nonpayable",
      "type": "function"
    },
    {
      "constant": true,
      "inputs": [
        {
          "name": "_user",
          "type": "address"
        }
      ],
      "name": "getNumberMediaByAddress",
      "outputs": [
        {
          "name": "",
          "type": "uint256"
        }
      ],
      "payable": false,
      "stateMutability": "view",
      "type": "function"
    }
  ],
  "bytecode": "0x60806040526032600255605a600355604b600455602e600555336000806101000a81548173ffffffffffffffffffffffffffffffffffffffff021916908373ffffffffffffffffffffffffffffffffffffffff1602179055506119b9806100676000396000f3006080604052600436106100e6576000357c0100000000000000000000000000000000000000000000000000000000900463ffffffff168063027935d4146100eb57806312253a6c1461040e5780632037048e1461042557806329976be8146104505780633f683b6a1461047b5780634ac8874d146104aa578063659d879714610671578063715018a61461069c57806383197ef0146106b35780638abe5593146106ca5780638da5cb5b146106f5578063abaf95731461074c578063c4bc5da5146107a3578063eac7f9ea146107ba578063f2fde38b146107e5578063f5074f4114610828575b600080fd5b3480156100f757600080fd5b50610136600480360381019080803573ffffffffffffffffffffffffffffffffffffffff1690602001909291908035906020019092919050505061086b565b604051808a815260200180602001806020018973ffffffffffffffffffffffffffffffffffffffff1673ffffffffffffffffffffffffffffffffffffffff1681526020018881526020018060200180602001806020018060200187810387528f818151815260200191508051906020019080838360005b838110156101c85780820151818401526020810190506101ad565b50505050905090810190601f1680156101f55780820380516001836020036101000a031916815260200191505b5087810386528e818151815260200191508051906020019080838360005b8381101561022e578082015181840152602081019050610213565b50505050905090810190601f16801561025b5780820380516001836020036101000a031916815260200191505b5087810385528b818151815260200191508051906020019080838360005b83811015610294578082015181840152602081019050610279565b50505050905090810190601f1680156102c15780820380516001836020036101000a031916815260200191505b5087810384528a818151815260200191508051906020019080838360005b838110156102fa5780820151818401526020810190506102df565b50505050905090810190601f1680156103275780820380516001836020036101000a031916815260200191505b50878103835289818151815260200191508051906020019080838360005b83811015610360578082015181840152602081019050610345565b50505050905090810190601f16801561038d5780820380516001836020036101000a031916815260200191505b50878103825288818151815260200191508051906020019080838360005b838110156103c65780820151818401526020810190506103ab565b50505050905090810190601f1680156103f35780820380516001836020036101000a031916815260200191505b509f5050505050505050505050505050505060405180910390f35b34801561041a57600080fd5b50610423610c85565b005b34801561043157600080fd5b5061043a610cfd565b6040518082815260200191505060405180910390f35b34801561045c57600080fd5b50610465610d03565b6040518082815260200191505060405180910390f35b34801561048757600080fd5b50610490610d09565b604051808215151515815260200191505060405180910390f35b3480156104b657600080fd5b5061066f600480360381019080803590602001908201803590602001908080601f0160208091040260200160405190810160405280939291908181526020018383808284378201915050505050509192919290803590602001908201803590602001908080601f0160208091040260200160405190810160405280939291908181526020018383808284378201915050505050509192919290803590602001908201803590602001908080601f0160208091040260200160405190810160405280939291908181526020018383808284378201915050505050509192919290803590602001908201803590602001908080601f0160208091040260200160405190810160405280939291908181526020018383808284378201915050505050509192919290803590602001908201803590602001908080601f0160208091040260200160405190810160405280939291908181526020018383808284378201915050505050509192919290803590602001908201803590602001908080601f0160208091040260200160405190810160405280939291908181526020018383808284378201915050505050509192919290505050610d1c565b005b34801561067d57600080fd5b5061068661136f565b6040518082815260200191505060405180910390f35b3480156106a857600080fd5b506106b1611375565b005b3480156106bf57600080fd5b506106c8611477565b005b3480156106d657600080fd5b506106df61150c565b6040518082815260200191505060405180910390f35b34801561070157600080fd5b5061070a611512565b604051808273ffffffffffffffffffffffffffffffffffffffff1673ffffffffffffffffffffffffffffffffffffffff16815260200191505060405180910390f35b34801561075857600080fd5b5061078d600480360381019080803573ffffffffffffffffffffffffffffffffffffffff169060200190929190505050611537565b6040518082815260200191505060405180910390f35b3480156107af57600080fd5b506107b8611583565b005b3480156107c657600080fd5b506107cf6115fa565b6040518082815260200191505060405180910390f35b3480156107f157600080fd5b50610826600480360381019080803573ffffffffffffffffffffffffffffffffffffffff169060200190929190505050611600565b005b34801561083457600080fd5b50610869600480360381019080803573ffffffffffffffffffffffffffffffffffffffff169060200190929190505050611667565b005b60066020528160005260406000208181548110151561088657fe5b906000526020600020906009020160009150915050806000015490806001018054600181600116156101000203166002900480601f0160208091040260200160405190810160405280929190818152602001828054600181600116156101000203166002900480156109395780601f1061090e57610100808354040283529160200191610939565b820191906000526020600020905b81548152906001019060200180831161091c57829003601f168201915b505050505090806002018054600181600116156101000203166002900480601f0160208091040260200160405190810160405280929190818152602001828054600181600116156101000203166002900480156109d75780601f106109ac576101008083540402835291602001916109d7565b820191906000526020600020905b8154815290600101906020018083116109ba57829003601f168201915b5050505050908060030160009054906101000a900473ffffffffffffffffffffffffffffffffffffffff1690806004015490806005018054600181600116156101000203166002900480601f016020809104026020016040519081016040528092919081815260200182805460018160011615610100020316600290048015610aa15780601f10610a7657610100808354040283529160200191610aa1565b820191906000526020600020905b815481529060010190602001808311610a8457829003601f168201915b505050505090806006018054600181600116156101000203166002900480601f016020809104026020016040519081016040528092919081815260200182805460018160011615610100020316600290048015610b3f5780601f10610b1457610100808354040283529160200191610b3f565b820191906000526020600020905b815481529060010190602001808311610b2257829003601f168201915b505050505090806007018054600181600116156101000203166002900480601f016020809104026020016040519081016040528092919081815260200182805460018160011615610100020316600290048015610bdd5780601f10610bb257610100808354040283529160200191610bdd565b820191906000526020600020905b815481529060010190602001808311610bc057829003601f168201915b505050505090806008018054600181600116156101000203166002900480601f016020809104026020016040519081016040528092919081815260200182805460018160011615610100020316600290048015610c7b5780601f10610c5057610100808354040283529160200191610c7b565b820191906000526020600020905b815481529060010190602001808311610c5e57829003601f168201915b5050505050905089565b6000809054906101000a900473ffffffffffffffffffffffffffffffffffffffff1673ffffffffffffffffffffffffffffffffffffffff163373ffffffffffffffffffffffffffffffffffffffff16141515610ce057600080fd5b6001600060146101000a81548160ff021916908315150217905550565b60025481565b60015481565b600060149054906101000a900460ff1681565b610d24611885565b60008060149054906101000a900460ff16151515610daa576040517f08c379a000000000000000000000000000000000000000000000000000000000815260040180806020018281038252601d8152602001807f54686520636f6e747261637420686173206265656e2073746f7070656400000081525060200191505060405180910390fd5b610db3886116db565b1515610e27576040517f08c379a00000000000000000000000000000000000000000000000000000000081526004018080602001828103825260138152602001807f4e616d6520697320746f6f206c6f6e672e2e2e0000000000000000000000000081525060200191505060405180910390fd5b610e3087611707565b1515610ea4576040517f08c379a000000000000000000000000000000000000000000000000000000000815260040180806020018281038252601a8152602001807f4465736372697074696f6e20697320746f6f206c6f6e672e2e2e00000000000081525060200191505060405180910390fd5b610ead85611733565b1515610f21576040517f08c379a00000000000000000000000000000000000000000000000000000000081526004018080602001828103825260138152602001807f5461677320697320746f6f206c6f6e672e2e2e0000000000000000000000000081525060200191505060405180910390fd5b610f2a8661175f565b1515610f9e576040517f08c379a00000000000000000000000000000000000000000000000000000000081526004018080602001828103825260138152602001807f4861736820697320746f6f206c6f6e672e2e2e0000000000000000000000000081525060200191505060405180910390fd5b42905060015482600001818152505087826020018190525086826040018190525033826060019073ffffffffffffffffffffffffffffffffffffffff16908173ffffffffffffffffffffffffffffffffffffffff168152505080826080018181525050858260c00181905250848260a00181905250838260e0018190525082826101000181905250600660003373ffffffffffffffffffffffffffffffffffffffff1673ffffffffffffffffffffffffffffffffffffffff16815260200190815260200160002082908060018154018082558091505090600182039060005260206000209060090201600090919290919091506000820151816000015560208201518160010190805190602001906110b79291906118e8565b5060408201518160020190805190602001906110d49291906118e8565b5060608201518160030160006101000a81548173ffffffffffffffffffffffffffffffffffffffff021916908373ffffffffffffffffffffffffffffffffffffffff1602179055506080820151816004015560a08201518160050190805190602001906111429291906118e8565b5060c082015181600601908051906020019061115f9291906118e8565b5060e082015181600701908051906020019061117c9291906118e8565b5061010082015181600801908051906020019061119a9291906118e8565b505050506001547f2dbfa5dcbfa0948f9d568b233f27e73a63a2ccdef907b08ef3669239c9d63d798933848a8960405180806020018673ffffffffffffffffffffffffffffffffffffffff1673ffffffffffffffffffffffffffffffffffffffff1681526020018581526020018060200180602001848103845289818151815260200191508051906020019080838360005b8381101561124757808201518184015260208101905061122c565b50505050905090810190601f1680156112745780820380516001836020036101000a031916815260200191505b50848103835286818151815260200191508051906020019080838360005b838110156112ad578082015181840152602081019050611292565b50505050905090810190601f1680156112da5780820380516001836020036101000a031916815260200191505b50848103825285818151815260200191508051906020019080838360005b838110156113135780820151818401526020810190506112f8565b50505050905090810190601f1680156113405780820380516001836020036101000a031916815260200191505b509850505050505050505060405180910390a26001600081548092919060010191905055505050505050505050565b60045481565b6000809054906101000a900473ffffffffffffffffffffffffffffffffffffffff1673ffffffffffffffffffffffffffffffffffffffff163373ffffffffffffffffffffffffffffffffffffffff161415156113d057600080fd5b6000809054906101000a900473ffffffffffffffffffffffffffffffffffffffff1673ffffffffffffffffffffffffffffffffffffffff167ff8df31144d9c2f0f6b59d69b8b98abd5459d07f2742c4df920b25aae33c6482060405160405180910390a260008060006101000a81548173ffffffffffffffffffffffffffffffffffffffff021916908373ffffffffffffffffffffffffffffffffffffffff160217905550565b6000809054906101000a900473ffffffffffffffffffffffffffffffffffffffff1673ffffffffffffffffffffffffffffffffffffffff163373ffffffffffffffffffffffffffffffffffffffff161415156114d257600080fd5b6000809054906101000a900473ffffffffffffffffffffffffffffffffffffffff1673ffffffffffffffffffffffffffffffffffffffff16ff5b60055481565b6000809054906101000a900473ffffffffffffffffffffffffffffffffffffffff1681565b6000600660008373ffffffffffffffffffffffffffffffffffffffff1673ffffffffffffffffffffffffffffffffffffffff168152602001908152602001600020805490509050919050565b6000809054906101000a900473ffffffffffffffffffffffffffffffffffffffff1673ffffffffffffffffffffffffffffffffffffffff163373ffffffffffffffffffffffffffffffffffffffff161415156115de57600080fd5b60008060146101000a81548160ff021916908315150217905550565b60035481565b6000809054906101000a900473ffffffffffffffffffffffffffffffffffffffff1673ffffffffffffffffffffffffffffffffffffffff163373ffffffffffffffffffffffffffffffffffffffff1614151561165b57600080fd5b6116648161178b565b50565b6000809054906101000a900473ffffffffffffffffffffffffffffffffffffffff1673ffffffffffffffffffffffffffffffffffffffff163373ffffffffffffffffffffffffffffffffffffffff161415156116c257600080fd5b8073ffffffffffffffffffffffffffffffffffffffff16ff5b600060606000839150815190506002548111156116fb5760009250611700565b600192505b5050919050565b60006060600083915081519050600354811115611727576000925061172c565b600192505b5050919050565b600060606000839150815190506004548111156117535760009250611758565b600192505b5050919050565b6000606060008391508151905060055481111561177f5760009250611784565b600192505b5050919050565b600073ffffffffffffffffffffffffffffffffffffffff168173ffffffffffffffffffffffffffffffffffffffff16141515156117c757600080fd5b8073ffffffffffffffffffffffffffffffffffffffff166000809054906101000a900473ffffffffffffffffffffffffffffffffffffffff1673ffffffffffffffffffffffffffffffffffffffff167f8be0079c531659141344cd1fd0a4f28419497f9722a3daafe3b4186f6b6457e060405160405180910390a3806000806101000a81548173ffffffffffffffffffffffffffffffffffffffff021916908373ffffffffffffffffffffffffffffffffffffffff16021790555050565b61012060405190810160405280600081526020016060815260200160608152602001600073ffffffffffffffffffffffffffffffffffffffff16815260200160008152602001606081526020016060815260200160608152602001606081525090565b828054600181600116156101000203166002900490600052602060002090601f016020900481019282601f1061192957805160ff1916838001178555611957565b82800160010185558215611957579182015b8281111561195657825182559160200191906001019061193b565b5b5090506119649190611968565b5090565b61198a91905b8082111561198657600081600090555060010161196e565b5090565b905600a165627a7a723058207da6f4e2c60cf8716f2d487cc36491f79b5a749006ce33fac1a631b12ba705cf0029",
  "source": "pragma solidity 0.4.24;\n\n// import Open Zeppelin contract for Owner function authorization\nimport \"../node_modules/openzeppelin-solidity/contracts/ownership/Ownable.sol\";\nimport \"../node_modules/openzeppelin-solidity/contracts/lifecycle/Destructible.sol\";\n\n/// @title Media Gallery, upload media asset representations to Ethereum\n/// @author Graham Jackson\n//Date: 27 August 2018\n//Version: MediaGallery v1.0 Rinkeby\n/**\n    @dev This contract provides the ability to create a library of media assets\n    which are referenced via a hash and are meant to be stored/retrieved via \n    the inter-planetary file systme (IPFS).\n*/\ncontract MediaGallery is Ownable, Destructible {\n\n    bool public isStopped;      //State variable used to stop/start the contract\n    uint public mediaCounter;   //A count of the total media assets added to the contract\n    uint public maximumNameLength = 50; //The maximum allowed length of a media asset name\n    uint public maximumDescLength = 90; //The maximum allowed length of a media asset description\n    uint public maximumTagsLength = 75; //The maximum allowed length of a media asset tags\n    uint public hashLength = 46; //The valid length of an IPFS hash\n\n    //Each poster address consists of an array of MediaAsset structs\n    //Used to store media assets, including the metadata associated with it, and to retrieve media\n    struct MediaAsset {\n        uint id;                //Unique identifier for a media asset\n        string name;            //Name of added media asset \n        string description;     //Description of added media asset\n        address author;         //Person who added the media assset\n        uint createDate;        //Date and time the media asset was added via block.timestamp\n        string tags;            //List of tags for added media asset\n        string mediaHash;       //Multi-hash of the media to retrieve media from IPFS\n        string mediaType;       //Type for media\n        string extension;       //File Extension\n    }\n\n    //Database of Media assets. Each poster address has an array of MediaAssets\n    mapping(address => MediaAsset[]) public mediaDatabase;\n\n    //Event to log when a new media asset has been added\n    event LogNewMediaAsset(\n        uint indexed _id,       //Unique identifier for the added media asseet\n        string _name,           //Name of added media asset\n        address _author,        //Address of person added media asset\n        uint _createDate,       //Date and time the media asset was added\n        string _mediaHash,      //Multi-hash of the added media asset\n        string _mediaType       //Type of the added media asset\n    );\n\n    //Modifier to prevent particular functions from being run during a stoppage\n    modifier stoppedInEmergency {\n        require(\n            !isStopped,\n            \"The contract has been stopped\"\n        );\n        _;\n    }\n\n    /** @dev Stops the contract.*/\n    function stopContract() public onlyOwner {\n        isStopped = true;\n    }\n\n    /** @dev Resume the contract.*/\n    function resumeContract() public onlyOwner {\n        isStopped = false;\n    }\n\n    /** \n      * @dev Add new media asset and trigger associated event.\n      * @param _name Name of the media asset.\n      * @param _description Description of the media asset.\n      * @param _mediaHash Multi-haash of the media asset.\n      * @param _tags List of tags for media asset.\n      * @param _mediaType File type of media asset.\n      * @param _extension File extension of media asset.\n    */\n    function addMedia(\n        string _name,\n        string _description,\n        string _mediaHash,\n        string _tags,\n        string _mediaType,\n        string _extension\n        ) public  stoppedInEmergency {\n        require(validateName(_name), \"Name is too long...\");\n        require(validateDesc(_description), \"Description is too long...\");\n        require(validateTags(_tags), \"Tags is too long...\");\n        require(validateHashLength(_mediaHash), \"Hash is too long...\");\n        //Store media asset information in memory\n        MediaAsset memory currentMedia;\n        /* \n        Timestamp of the current block in seconds since the epoch.\n        Typically, it is not recommended to use the timestamp of a block\n        because there is no way to cryptographically verify the timestamp\n        and it can be manipulated by miners. However, in this case the\n        timestamp is purely informational and is not used for any validation\n        or action.\n        */\n        uint date = block.timestamp;\n\n        currentMedia.id = mediaCounter;\n        currentMedia.name = _name;\n        currentMedia.description = _description;\n        currentMedia.author = msg.sender;\n        currentMedia.createDate = date;\n        currentMedia.mediaHash = _mediaHash;\n        currentMedia.tags = _tags;\n        currentMedia.mediaType = _mediaType;\n        currentMedia.extension = _extension;\n\n        //Store the media asset in the database for the address of the sender\n        mediaDatabase[msg.sender].push(currentMedia);\n\n        //Emit the event for adding a media asset\n        emit LogNewMediaAsset(\n            mediaCounter,\n            _name,\n            msg.sender,\n            date,\n            _mediaHash,\n            _mediaType\n        );\n\n        //Increment the media counter to track total\n        mediaCounter++;\n    }\n\n    /** \n      * @dev Retrieve unique identifiers for media assets for a particular address.\n      * @param _user Address to retrieve media identifiers for.\n      * @return mediaAssetIds An array of media identifiers for provided address.\n    */\n    function getNumberMediaByAddress(address _user) public view returns (uint) {\n        return mediaDatabase[_user].length;\n    }\n\n    /** \n      * @dev Validate length of the name for a media asset.\n      * @param _name Proposed name for a media asset.\n      * @return A boolean value.\n    */\n    function validateName(string _name) private view returns(bool) {\n        bytes memory nameBytes = bytes(_name);\n        uint lengthBytes = nameBytes.length;\n        if (lengthBytes > maximumNameLength) {\n            return false;\n        }\n\n        return true;\n    }\n\n    /** \n      * @dev Validate length of the description for a media asset.\n      * @param _description Proposed description for a media asset.\n      * @return A boolean value.\n    */\n    function validateDesc(string _description) private view returns(bool) {\n        bytes memory descBytes = bytes(_description);\n        uint lengthBytes = descBytes.length;\n        if (lengthBytes > maximumDescLength) {\n            return false;\n        }\n\n        return true;\n    }\n\n    /** \n      * @dev Validate length of the tags for a media asset.\n      * @param _tags Proposed tags for a media asset.\n      * @return A boolean value.\n    */\n    function validateTags(string _tags) private view returns(bool) {\n        bytes memory tagsBytes = bytes(_tags);\n        uint lengthTags = tagsBytes.length;\n        if (lengthTags > maximumTagsLength) {\n            return false;\n        }\n\n        return true;\n    }\n\n    /** \n      * @dev Validate length of the IPFS hash for a media asset.\n      * @param _hash Proposed hash for a media asset.\n      * @return A boolean value.\n    */\n    function validateHashLength(string _hash) private view returns(bool) {\n        bytes memory hashBytes = bytes(_hash);\n        uint lengthHash = hashBytes.length;\n        if (lengthHash > hashLength) {\n            return false;\n        }\n\n        return true;\n    }\n}",
  "sourcePath": "/Users/grahamjackson/Projects/media_gallery/contracts/MediaGallery.sol",
  "compiler": {
    "name": "solc",
    "version": "0.4.24+commit.e67f0147.Emscripten.clang"
  },
  "schemaVersion": "2.0.1",
  "updatedAt": "2018-08-27T04:45:00.743Z"
}